{
  "contractName": "initial",
  "abi": [
    {
      "constant": true,
      "inputs": [
        {
          "name": "",
          "type": "uint256"
        }
      ],
      "name": "studentAddress",
      "outputs": [
        {
          "name": "",
          "type": "address"
        }
      ],
      "payable": false,
      "stateMutability": "view",
      "type": "function",
      "signature": "0x1847c2ca"
    },
    {
      "constant": true,
      "inputs": [
        {
          "name": "",
          "type": "uint256"
        }
      ],
      "name": "AllAssignment",
      "outputs": [
        {
          "name": "ass_no",
          "type": "uint256"
        },
        {
          "name": "ass_name",
          "type": "string"
        },
        {
          "name": "deadline",
          "type": "uint256"
        }
      ],
      "payable": false,
      "stateMutability": "view",
      "type": "function",
      "signature": "0x59f032bf"
    },
    {
      "constant": true,
      "inputs": [
        {
          "name": "",
          "type": "address"
        }
      ],
      "name": "balanceOf",
      "outputs": [
        {
          "name": "",
          "type": "uint256"
        }
      ],
      "payable": false,
      "stateMutability": "view",
      "type": "function",
      "signature": "0x70a08231"
    },
    {
      "constant": true,
      "inputs": [
        {
          "name": "",
          "type": "uint256"
        }
      ],
      "name": "AssignmentNumber",
      "outputs": [
        {
          "name": "",
          "type": "uint256"
        }
      ],
      "payable": false,
      "stateMutability": "view",
      "type": "function",
      "signature": "0xa9617cf9"
    },
    {
      "constant": false,
      "inputs": [
        {
          "name": "rollno",
          "type": "uint256"
        },
        {
          "name": "_value",
          "type": "uint256"
        }
      ],
      "name": "transfer",
      "outputs": [
        {
          "name": "success",
          "type": "bool"
        }
      ],
      "payable": true,
      "stateMutability": "payable",
      "type": "function",
      "signature": "0x0cf79e0a"
    },
    {
      "constant": false,
      "inputs": [
        {
          "name": "_rollno",
          "type": "uint256"
        }
      ],
      "name": "studentsAddress",
      "outputs": [
        {
          "name": "",
          "type": "address"
        }
      ],
      "payable": false,
      "stateMutability": "nonpayable",
      "type": "function",
      "signature": "0x499ab700"
    },
    {
      "constant": false,
      "inputs": [
        {
          "name": "_from",
          "type": "address"
        },
        {
          "name": "_to",
          "type": "address"
        },
        {
          "name": "_value",
          "type": "uint256"
        }
      ],
      "name": "transferFrom",
      "outputs": [
        {
          "name": "success",
          "type": "bool"
        }
      ],
      "payable": false,
      "stateMutability": "nonpayable",
      "type": "function",
      "signature": "0x23b872dd"
    },
    {
      "constant": true,
      "inputs": [
        {
          "name": "_a",
          "type": "string"
        },
        {
          "name": "_b",
          "type": "string"
        }
      ],
      "name": "stringsEqual",
      "outputs": [
        {
          "name": "",
          "type": "bool"
        }
      ],
      "payable": false,
      "stateMutability": "pure",
      "type": "function",
      "signature": "0x13d19950"
    },
    {
      "constant": false,
      "inputs": [
        {
          "name": "name",
          "type": "string"
        },
        {
          "name": "password",
          "type": "string"
        },
        {
          "name": "email",
          "type": "string"
        },
        {
          "name": "rollno",
          "type": "uint256"
        },
        {
          "name": "actor",
          "type": "string"
        }
      ],
      "name": "registerStudent",
      "outputs": [
        {
          "name": "",
          "type": "uint256"
        }
      ],
      "payable": false,
      "stateMutability": "nonpayable",
      "type": "function",
      "signature": "0x65ec8d73"
    },
    {
      "constant": false,
      "inputs": [
        {
          "name": "email",
          "type": "string"
        },
        {
          "name": "password",
          "type": "string"
        },
        {
          "name": "actor",
          "type": "string"
        }
      ],
      "name": "checkLogin",
      "outputs": [
        {
          "name": "",
          "type": "uint256"
        },
        {
          "name": "",
          "type": "string"
        }
      ],
      "payable": true,
      "stateMutability": "payable",
      "type": "function",
      "signature": "0xd5a5f294"
    },
    {
      "constant": false,
      "inputs": [
        {
          "name": "name",
          "type": "string"
        },
        {
          "name": "password",
          "type": "string"
        },
        {
          "name": "email",
          "type": "string"
        },
        {
          "name": "actor",
          "type": "string"
        },
        {
          "name": "subject",
          "type": "string"
        }
      ],
      "name": "registerTeacher",
      "outputs": [
        {
          "name": "",
          "type": "uint256"
        }
      ],
      "payable": false,
      "stateMutability": "nonpayable",
      "type": "function",
      "signature": "0xbb60a5f2"
    },
    {
      "constant": false,
      "inputs": [],
      "name": "getInformationStudent",
      "outputs": [
        {
          "name": "",
          "type": "string"
        },
        {
          "name": "",
          "type": "string"
        },
        {
          "name": "",
          "type": "uint256"
        }
      ],
      "payable": false,
      "stateMutability": "nonpayable",
      "type": "function",
      "signature": "0x2de12a5b"
    },
    {
      "constant": false,
      "inputs": [],
      "name": "getInformationTeacher",
      "outputs": [
        {
          "name": "",
          "type": "string"
        },
        {
          "name": "",
          "type": "string"
        },
        {
          "name": "",
          "type": "string"
        }
      ],
      "payable": false,
      "stateMutability": "nonpayable",
      "type": "function",
      "signature": "0xc5f6533b"
    },
    {
      "constant": false,
      "inputs": [
        {
          "name": "name",
          "type": "string"
        },
        {
          "name": "no",
          "type": "uint256"
        },
        {
          "name": "deadline",
          "type": "uint256"
        }
      ],
      "name": "createAsses",
      "outputs": [
        {
          "name": "",
          "type": "uint256"
        }
      ],
      "payable": true,
      "stateMutability": "payable",
      "type": "function",
      "signature": "0x09cdf1c4"
    },
    {
      "constant": false,
      "inputs": [],
      "name": "getAssignment",
      "outputs": [
        {
          "name": "",
          "type": "string"
        },
        {
          "name": "",
          "type": "uint256"
        },
        {
          "name": "",
          "type": "uint256"
        }
      ],
      "payable": false,
      "stateMutability": "nonpayable",
      "type": "function",
      "signature": "0x9749c4e8"
    }
  ],
  "bytecode": "0x608060405234801561001057600080fd5b506127dc806100206000396000f3fe6080604052600436106100db576000357c0100000000000000000000000000000000000000000000000000000000900463ffffffff16806309cdf1c4146100e05780630cf79e0a146101c357806313d19950146102135780631847c2ca1461038a57806323b872dd146104055780632de12a5b14610498578063499ab7001461059b57806359f032bf1461061657806365ec8d73146106d857806370a08231146109835780639749c4e8146109e8578063a9617cf914610a86578063bb60a5f214610ad5578063c5f6533b14610e0d578063d5a5f29414610f75575b600080fd5b6101ad600480360360608110156100f657600080fd5b810190808035906020019064010000000081111561011357600080fd5b82018360208201111561012557600080fd5b8035906020019184600183028401116401000000008311171561014757600080fd5b91908080601f016020809104026020016040519081016040528093929190818152602001838380828437600081840152601f19601f82011690508083019250505050505050919291929080359060200190929190803590602001909291905050506111de565b6040518082815260200191505060405180910390f35b6101f9600480360360408110156101d957600080fd5b810190808035906020019092919080359060200190929190505050611278565b604051808215151515815260200191505060405180910390f35b34801561021f57600080fd5b506103706004803603604081101561023657600080fd5b810190808035906020019064010000000081111561025357600080fd5b82018360208201111561026557600080fd5b8035906020019184600183028401116401000000008311171561028757600080fd5b91908080601f016020809104026020016040519081016040528093929190818152602001838380828437600081840152601f19601f820116905080830192505050505050509192919290803590602001906401000000008111156102ea57600080fd5b8201836020820111156102fc57600080fd5b8035906020019184600183028401116401000000008311171561031e57600080fd5b91908080601f016020809104026020016040519081016040528093929190818152602001838380828437600081840152601f19601f82011690508083019250505050505050919291929050505061139f565b604051808215151515815260200191505060405180910390f35b34801561039657600080fd5b506103c3600480360360208110156103ad57600080fd5b81019080803590602001909291905050506114f4565b604051808273ffffffffffffffffffffffffffffffffffffffff1673ffffffffffffffffffffffffffffffffffffffff16815260200191505060405180910390f35b34801561041157600080fd5b5061047e6004803603606081101561042857600080fd5b81019080803573ffffffffffffffffffffffffffffffffffffffff169060200190929190803573ffffffffffffffffffffffffffffffffffffffff16906020019092919080359060200190929190505050611527565b604051808215151515815260200191505060405180910390f35b3480156104a457600080fd5b506104ad61161c565b604051808060200180602001848152602001838103835286818151815260200191508051906020019080838360005b838110156104f75780820151818401526020810190506104dc565b50505050905090810190601f1680156105245780820380516001836020036101000a031916815260200191505b50838103825285818151815260200191508051906020019080838360005b8381101561055d578082015181840152602081019050610542565b50505050905090810190601f16801561058a5780820380516001836020036101000a031916815260200191505b509550505050505060405180910390f35b3480156105a757600080fd5b506105d4600480360360208110156105be57600080fd5b8101908080359060200190929190505050611828565b604051808273ffffffffffffffffffffffffffffffffffffffff1673ffffffffffffffffffffffffffffffffffffffff16815260200191505060405180910390f35b34801561062257600080fd5b5061064f6004803603602081101561063957600080fd5b8101908080359060200190929190505050611865565b6040518084815260200180602001838152602001828103825284818151815260200191508051906020019080838360005b8381101561069b578082015181840152602081019050610680565b50505050905090810190601f1680156106c85780820380516001836020036101000a031916815260200191505b5094505050505060405180910390f35b3480156106e457600080fd5b5061096d600480360360a08110156106fb57600080fd5b810190808035906020019064010000000081111561071857600080fd5b82018360208201111561072a57600080fd5b8035906020019184600183028401116401000000008311171561074c57600080fd5b91908080601f016020809104026020016040519081016040528093929190818152602001838380828437600081840152601f19601f820116905080830192505050505050509192919290803590602001906401000000008111156107af57600080fd5b8201836020820111156107c157600080fd5b803590602001918460018302840111640100000000831117156107e357600080fd5b91908080601f016020809104026020016040519081016040528093929190818152602001838380828437600081840152601f19601f8201169050808301925050505050505091929192908035906020019064010000000081111561084657600080fd5b82018360208201111561085857600080fd5b8035906020019184600183028401116401000000008311171561087a57600080fd5b91908080601f016020809104026020016040519081016040528093929190818152602001838380828437600081840152601f19601f82011690508083019250505050505050919291929080359060200190929190803590602001906401000000008111156108e757600080fd5b8201836020820111156108f957600080fd5b8035906020019184600183028401116401000000008311171561091b57600080fd5b91908080601f016020809104026020016040519081016040528093929190818152602001838380828437600081840152601f19601f820116905080830192505050505050509192919290505050611927565b6040518082815260200191505060405180910390f35b34801561098f57600080fd5b506109d2600480360360208110156109a657600080fd5b81019080803573ffffffffffffffffffffffffffffffffffffffff169060200190929190505050611ad4565b6040518082815260200191505060405180910390f35b3480156109f457600080fd5b506109fd611aec565b6040518080602001848152602001838152602001828103825285818151815260200191508051906020019080838360005b83811015610a49578082015181840152602081019050610a2e565b50505050905090810190601f168015610a765780820380516001836020036101000a031916815260200191505b5094505050505060405180910390f35b348015610a9257600080fd5b50610abf60048036036020811015610aa957600080fd5b8101908080359060200190929190505050611c2a565b6040518082815260200191505060405180910390f35b348015610ae157600080fd5b50610df7600480360360a0811015610af857600080fd5b8101908080359060200190640100000000811115610b1557600080fd5b820183602082011115610b2757600080fd5b80359060200191846001830284011164010000000083111715610b4957600080fd5b91908080601f016020809104026020016040519081016040528093929190818152602001838380828437600081840152601f19601f82011690508083019250505050505050919291929080359060200190640100000000811115610bac57600080fd5b820183602082011115610bbe57600080fd5b80359060200191846001830284011164010000000083111715610be057600080fd5b91908080601f016020809104026020016040519081016040528093929190818152602001838380828437600081840152601f19601f82011690508083019250505050505050919291929080359060200190640100000000811115610c4357600080fd5b820183602082011115610c5557600080fd5b80359060200191846001830284011164010000000083111715610c7757600080fd5b91908080601f016020809104026020016040519081016040528093929190818152602001838380828437600081840152601f19601f82011690508083019250505050505050919291929080359060200190640100000000811115610cda57600080fd5b820183602082011115610cec57600080fd5b80359060200191846001830284011164010000000083111715610d0e57600080fd5b91908080601f016020809104026020016040519081016040528093929190818152602001838380828437600081840152601f19601f82011690508083019250505050505050919291929080359060200190640100000000811115610d7157600080fd5b820183602082011115610d8357600080fd5b80359060200191846001830284011164010000000083111715610da557600080fd5b91908080601f016020809104026020016040519081016040528093929190818152602001838380828437600081840152601f19601f820116905080830192505050505050509192919290505050611c4d565b6040518082815260200191505060405180910390f35b348015610e1957600080fd5b50610e22611e0f565b60405180806020018060200180602001848103845287818151815260200191508051906020019080838360005b83811015610e6a578082015181840152602081019050610e4f565b50505050905090810190601f168015610e975780820380516001836020036101000a031916815260200191505b50848103835286818151815260200191508051906020019080838360005b83811015610ed0578082015181840152602081019050610eb5565b50505050905090810190601f168015610efd5780820380516001836020036101000a031916815260200191505b50848103825285818151815260200191508051906020019080838360005b83811015610f36578082015181840152602081019050610f1b565b50505050905090810190601f168015610f635780820380516001836020036101000a031916815260200191505b50965050505050505060405180910390f35b61115c60048036036060811015610f8b57600080fd5b8101908080359060200190640100000000811115610fa857600080fd5b820183602082011115610fba57600080fd5b80359060200191846001830284011164010000000083111715610fdc57600080fd5b91908080601f016020809104026020016040519081016040528093929190818152602001838380828437600081840152601f19601f8201169050808301925050505050505091929192908035906020019064010000000081111561103f57600080fd5b82018360208201111561105157600080fd5b8035906020019184600183028401116401000000008311171561107357600080fd5b91908080601f016020809104026020016040519081016040528093929190818152602001838380828437600081840152601f19601f820116905080830192505050505050509192919290803590602001906401000000008111156110d657600080fd5b8201836020820111156110e857600080fd5b8035906020019184600183028401116401000000008311171561110a57600080fd5b91908080601f016020809104026020016040519081016040528093929190818152602001838380828437600081840152601f19601f8201169050808301925050505050505091929192905050506120b9565b6040518083815260200180602001828103825283818151815260200191508051906020019080838360005b838110156111a2578082015181840152602081019050611187565b50505050905090810190601f1680156111cf5780820380516001836020036101000a031916815260200191505b50935050505060405180910390f35b60008360046000858152602001908152602001600020600101908051906020019061120a92919061270b565b508260046000858152602001908152602001600020600001819055508160046000858152602001908152602001600020600201819055506005839080600181540180825580915050906001820390600052602060002001600090919290919091505550600190509392505050565b600081600260003373ffffffffffffffffffffffffffffffffffffffff1673ffffffffffffffffffffffffffffffffffffffff16815260200190815260200160002054101515156112c857600080fd5b81600260003373ffffffffffffffffffffffffffffffffffffffff1673ffffffffffffffffffffffffffffffffffffffff1681526020019081526020016000206000828254039250508190555081600260006003600087815260200190815260200160002060009054906101000a900473ffffffffffffffffffffffffffffffffffffffff1673ffffffffffffffffffffffffffffffffffffffff1673ffffffffffffffffffffffffffffffffffffffff168152602001908152602001600020600082825401925050819055506001905092915050565b600060608390506060839050805182511415156113c1576000925050506114ee565b60008090505b82518110156114e65781818151811015156113de57fe5b9060200101517f010000000000000000000000000000000000000000000000000000000000000090047f0100000000000000000000000000000000000000000000000000000000000000027effffffffffffffffffffffffffffffffffffffffffffffffffffffffffffff1916838281518110151561145957fe5b9060200101517f010000000000000000000000000000000000000000000000000000000000000090047f0100000000000000000000000000000000000000000000000000000000000000027effffffffffffffffffffffffffffffffffffffffffffffffffffffffffffff19161415156114d957600093505050506114ee565b80806001019150506113c7565b506001925050505b92915050565b60036020528060005260406000206000915054906101000a900473ffffffffffffffffffffffffffffffffffffffff1681565b6000600260008573ffffffffffffffffffffffffffffffffffffffff1673ffffffffffffffffffffffffffffffffffffffff16815260200190815260200160002054821115151561157757600080fd5b81600260008673ffffffffffffffffffffffffffffffffffffffff1673ffffffffffffffffffffffffffffffffffffffff1681526020019081526020016000206000828254039250508190555081600260008573ffffffffffffffffffffffffffffffffffffffff1673ffffffffffffffffffffffffffffffffffffffff16815260200190815260200160002060008282540192505081905550600190509392505050565b60608060008060003373ffffffffffffffffffffffffffffffffffffffff1673ffffffffffffffffffffffffffffffffffffffff1681526020019081526020016000206002016000803373ffffffffffffffffffffffffffffffffffffffff1673ffffffffffffffffffffffffffffffffffffffff1681526020019081526020016000206000016000803373ffffffffffffffffffffffffffffffffffffffff1673ffffffffffffffffffffffffffffffffffffffff16815260200190815260200160002060010154828054600181600116156101000203166002900480601f01602080910402602001604051908101604052809291908181526020018280546001816001161561010002031660029004801561177a5780601f1061174f5761010080835404028352916020019161177a565b820191906000526020600020905b81548152906001019060200180831161175d57829003601f168201915b50505050509250818054600181600116156101000203166002900480601f0160208091040260200160405190810160405280929190818152602001828054600181600116156101000203166002900480156118165780601f106117eb57610100808354040283529160200191611816565b820191906000526020600020905b8154815290600101906020018083116117f957829003601f168201915b50505050509150925092509250909192565b60006003600083815260200190815260200160002060009054906101000a900473ffffffffffffffffffffffffffffffffffffffff169050919050565b6004602052806000526040600020600091509050806000015490806001018054600181600116156101000203166002900480601f0160208091040260200160405190810160405280929190818152602001828054600181600116156101000203166002900480156119175780601f106118ec57610100808354040283529160200191611917565b820191906000526020600020905b8154815290600101906020018083116118fa57829003601f168201915b5050505050908060020154905083565b6000856000803373ffffffffffffffffffffffffffffffffffffffff1673ffffffffffffffffffffffffffffffffffffffff168152602001908152602001600020600201908051906020019061197e92919061270b565b50836000803373ffffffffffffffffffffffffffffffffffffffff1673ffffffffffffffffffffffffffffffffffffffff16815260200190815260200160002060000190805190602001906119d492919061270b565b50846000803373ffffffffffffffffffffffffffffffffffffffff1673ffffffffffffffffffffffffffffffffffffffff1681526020019081526020016000206003019080519060200190611a2a92919061270b565b50826000803373ffffffffffffffffffffffffffffffffffffffff1673ffffffffffffffffffffffffffffffffffffffff16815260200190815260200160002060010181905550816000803373ffffffffffffffffffffffffffffffffffffffff1673ffffffffffffffffffffffffffffffffffffffff1681526020019081526020016000206005019080519060200190611ac692919061270b565b506001905095945050505050565b60026020528060005260406000206000915090505481565b60606000806004600060056000815481101515611b0557fe5b906000526020600020015481526020019081526020016000206001016004600060056000815481101515611b3557fe5b90600052602060002001548152602001908152602001600020600001546004600060056000815481101515611b6657fe5b9060005260206000200154815260200190815260200160002060020154828054600181600116156101000203166002900480601f016020809104026020016040519081016040528092919081815260200182805460018160011615610100020316600290048015611c185780601f10611bed57610100808354040283529160200191611c18565b820191906000526020600020905b815481529060010190602001808311611bfb57829003601f168201915b50505050509250925092509250909192565b600581815481101515611c3957fe5b906000526020600020016000915090505481565b600085600160003373ffffffffffffffffffffffffffffffffffffffff1673ffffffffffffffffffffffffffffffffffffffff1681526020019081526020016000206001019080519060200190611ca592919061270b565b5083600160003373ffffffffffffffffffffffffffffffffffffffff1673ffffffffffffffffffffffffffffffffffffffff1681526020019081526020016000206000019080519060200190611cfc92919061270b565b5084600160003373ffffffffffffffffffffffffffffffffffffffff1673ffffffffffffffffffffffffffffffffffffffff1681526020019081526020016000206002019080519060200190611d5392919061270b565b5082600160003373ffffffffffffffffffffffffffffffffffffffff1673ffffffffffffffffffffffffffffffffffffffff1681526020019081526020016000206005019080519060200190611daa92919061270b565b5081600160003373ffffffffffffffffffffffffffffffffffffffff1673ffffffffffffffffffffffffffffffffffffffff1681526020019081526020016000206003019080519060200190611e0192919061270b565b506001905095945050505050565b6060806060600160003373ffffffffffffffffffffffffffffffffffffffff1673ffffffffffffffffffffffffffffffffffffffff168152602001908152602001600020600101600160003373ffffffffffffffffffffffffffffffffffffffff1673ffffffffffffffffffffffffffffffffffffffff168152602001908152602001600020600001600160003373ffffffffffffffffffffffffffffffffffffffff1673ffffffffffffffffffffffffffffffffffffffff168152602001908152602001600020600301828054600181600116156101000203166002900480601f016020809104026020016040519081016040528092919081815260200182805460018160011615610100020316600290048015611f6f5780601f10611f4457610100808354040283529160200191611f6f565b820191906000526020600020905b815481529060010190602001808311611f5257829003601f168201915b50505050509250818054600181600116156101000203166002900480601f01602080910402602001604051908101604052809291908181526020018280546001816001161561010002031660029004801561200b5780601f10611fe05761010080835404028352916020019161200b565b820191906000526020600020905b815481529060010190602001808311611fee57829003601f168201915b50505050509150808054600181600116156101000203166002900480601f0160208091040260200160405190810160405280929190818152602001828054600181600116156101000203166002900480156120a75780601f1061207c576101008083540402835291602001916120a7565b820191906000526020600020905b81548152906001019060200180831161208a57829003601f168201915b50505050509050925092509250909192565b600060606120fc836040805190810160405280600781526020017f73747564656e740000000000000000000000000000000000000000000000000081525061139f565b15612403576121e46000803373ffffffffffffffffffffffffffffffffffffffff1673ffffffffffffffffffffffffffffffffffffffff1681526020019081526020016000206000018054600181600116156101000203166002900480601f0160208091040260200160405190810160405280929190818152602001828054600181600116156101000203166002900480156121d95780601f106121ae576101008083540402835291602001916121d9565b820191906000526020600020905b8154815290600101906020018083116121bc57829003601f168201915b50505050508661139f565b80156122cf57506122ce6000803373ffffffffffffffffffffffffffffffffffffffff1673ffffffffffffffffffffffffffffffffffffffff1681526020019081526020016000206003018054600181600116156101000203166002900480601f0160208091040260200160405190810160405280929190818152602001828054600181600116156101000203166002900480156122c35780601f10612298576101008083540402835291602001916122c3565b820191906000526020600020905b8154815290600101906020018083116122a657829003601f168201915b50505050508561139f565b5b156123bf5760016000803373ffffffffffffffffffffffffffffffffffffffff1673ffffffffffffffffffffffffffffffffffffffff168152602001908152602001600020600501819150808054600181600116156101000203166002900480601f0160208091040260200160405190810160405280929190818152602001828054600181600116156101000203166002900480156123af5780601f10612384576101008083540402835291602001916123af565b820191906000526020600020905b81548152906001019060200180831161239257829003601f168201915b5050505050905091509150612703565b60008090506040805190810160405280600481526020017f6e756c6c0000000000000000000000000000000000000000000000000000000081525091509150612703565b6124e7600160003373ffffffffffffffffffffffffffffffffffffffff1673ffffffffffffffffffffffffffffffffffffffff1681526020019081526020016000206000018054600181600116156101000203166002900480601f0160208091040260200160405190810160405280929190818152602001828054600181600116156101000203166002900480156124dc5780601f106124b1576101008083540402835291602001916124dc565b820191906000526020600020905b8154815290600101906020018083116124bf57829003601f168201915b50505050508661139f565b80156125d357506125d2600160003373ffffffffffffffffffffffffffffffffffffffff1673ffffffffffffffffffffffffffffffffffffffff1681526020019081526020016000206002018054600181600116156101000203166002900480601f0160208091040260200160405190810160405280929190818152602001828054600181600116156101000203166002900480156125c75780601f1061259c576101008083540402835291602001916125c7565b820191906000526020600020905b8154815290600101906020018083116125aa57829003601f168201915b50505050508561139f565b5b156126c35760018060003373ffffffffffffffffffffffffffffffffffffffff1673ffffffffffffffffffffffffffffffffffffffff168152602001908152602001600020600501819150808054600181600116156101000203166002900480601f0160208091040260200160405190810160405280929190818152602001828054600181600116156101000203166002900480156126b35780601f10612688576101008083540402835291602001916126b3565b820191906000526020600020905b81548152906001019060200180831161269657829003601f168201915b5050505050905091509150612703565b60008090506040805190810160405280600481526020017f6e756c6c00000000000000000000000000000000000000000000000000000000815250915091505b935093915050565b828054600181600116156101000203166002900490600052602060002090601f016020900481019282601f1061274c57805160ff191683800117855561277a565b8280016001018555821561277a579182015b8281111561277957825182559160200191906001019061275e565b5b509050612787919061278b565b5090565b6127ad91905b808211156127a9576000816000905550600101612791565b5090565b9056fea165627a7a72305820583efb95702df89378010c80b933adfc0e69f139e83a31c81e827fc9b4bbe0b70029",
  "source": "pragma solidity ^0.5.0;\r\n\r\ncontract initial {\r\n    /*=======================STRUCTURES==========================*/\r\n    \r\n    struct Student\r\n    {\r\n        string student_email;\r\n        uint student_rollno;\r\n        string student_name;\r\n        string student_password;\r\n        string gender;\r\n        string actor;\r\n        address student_address;\r\n\r\n    }\r\n\r\n    struct Teacher\r\n    {\r\n        string teacher_email;\r\n        string teacher_name;\r\n        string teacher_password;\r\n        string teacher_subject;\r\n        string gender;\r\n        string actor;\r\n        address teacher_address;\r\n\r\n    }\r\n\r\n    struct Assignment\r\n    {\r\n        uint ass_no;\r\n        string ass_name;\r\n        uint deadline;\r\n    }\r\n    \r\n    /*=======================MAPPING==========================*/\r\n    \r\n    //Mapping for address to Student deatails stored in Student structure\r\n    mapping(address => Student) private allStudents;\r\n    //Mapping for address to Teacher deatails stored in Teacher structure\r\n    mapping(address => Teacher) private allTeachers;\r\n    //balance\r\n    mapping(address => uint256) public balanceOf;\r\n    //\r\n    mapping(uint => address) public studentAddress;\r\n    //\r\n    mapping(uint => Assignment) public AllAssignment;\r\n    \r\n    uint[] public AssignmentNumber;\r\n    /*=======================FUNCTIONS==========================*/\r\n   \r\n    function transfer(uint rollno, uint256 _value) public payable returns (bool success) {\r\n        require(balanceOf[msg.sender] >= _value);\r\n\r\n        balanceOf[msg.sender] -= _value;\r\n        balanceOf[studentAddress[rollno]] += _value;\r\n\r\n        //event\r\n        //Transfer(msg.sender, _to, _value);\r\n\r\n        return true;\r\n    }\r\n\r\n    function studentsAddress(uint _rollno) external returns(address){\r\n        return studentAddress[_rollno];\r\n    }\r\n\r\n    function transferFrom(address _from, address _to, uint256 _value) public returns (bool success) {\r\n        require(_value <= balanceOf[_from]);\r\n        \r\n        balanceOf[_from] -= _value;\r\n        balanceOf[_to] += _value;\r\n        // allowance[_from][msg.sender] -= _value;\r\n\r\n        // Transfer(_from, _to, _value);\r\n        return true;\r\n    }\r\n    \r\n    // internal function to compare strings \r\n    function stringsEqual(string memory _a, string memory _b) public pure returns (bool) {\r\n        bytes memory a = bytes(_a);\r\n        bytes memory b = bytes(_b);\r\n        if(a.length != b.length)\r\n            return false;\r\n        for (uint i=0; i < a.length; i++)\r\n        {\r\n            if(a[i] != b[i])\r\n                return false;\r\n        }\r\n        return true;\r\n    }\r\n\r\n    function registerStudent(string memory name, string memory password, string memory email, uint rollno, string memory actor) public returns(uint)\r\n    {\r\n        allStudents[msg.sender].student_name = name;\r\n        allStudents[msg.sender].student_email = email;\r\n        allStudents[msg.sender].student_password = password;\r\n        allStudents[msg.sender].student_rollno = rollno;\r\n        allStudents[msg.sender].actor = actor;  \r\n        return 1;\r\n    }\r\n\r\n    //Function for checking login\r\n    function checkLogin(string memory email, string memory password, string memory actor) \r\n    public payable returns(uint, string memory) \r\n    {\r\n        if(stringsEqual(actor, \"student\"))       \r\n        {   \r\n            if(stringsEqual(allStudents[msg.sender].student_email,email) && stringsEqual(allStudents[msg.sender].student_password,password))\r\n            {\r\n                return (1,allStudents[msg.sender].actor);\r\n            }\r\n            return (0,\"null\");\r\n        }\r\n        else\r\n        {\r\n            if(stringsEqual(allTeachers[msg.sender].teacher_email,email) && stringsEqual(allTeachers[msg.sender].teacher_password,password))\r\n            {\r\n                return (1,allTeachers[msg.sender].actor);\r\n            }\r\n            return (0,\"null\");\r\n        }\r\n    }\r\n\r\n    function registerTeacher(string memory name, string memory password, string memory email, string memory actor, string memory subject)\r\n    public returns(uint)\r\n    {\r\n        allTeachers[msg.sender].teacher_name = name;\r\n        allTeachers[msg.sender].teacher_email = email;\r\n        allTeachers[msg.sender].teacher_password = password;\r\n        allTeachers[msg.sender].actor = actor;\r\n        allTeachers[msg.sender].teacher_subject = subject;\r\n        return 1;\r\n    }\r\n\r\n    function getInformationStudent() public returns(string memory, string memory,uint)\r\n    {\r\n        return(allStudents[msg.sender].student_name,allStudents[msg.sender].student_email,allStudents[msg.sender].student_rollno);\r\n    }\r\n\r\n    function getInformationTeacher() public returns(string memory, string memory, string memory)\r\n    {\r\n        return(allTeachers[msg.sender].teacher_name, allTeachers[msg.sender].teacher_email, allTeachers[msg.sender].teacher_subject);\r\n    }\r\n      \r\n    function createAsses(string memory name, uint no, uint deadline) public payable returns(uint)\r\n    {\r\n        AllAssignment[no].ass_name = name;\r\n        AllAssignment[no].ass_no = no;\r\n        AllAssignment[no].deadline = deadline;\r\n        AssignmentNumber.push(no);\r\n        return 1;\r\n    }\r\n\r\n    function getAssignment() public returns(string memory, uint ,uint) \r\n    {\r\n        return (AllAssignment[AssignmentNumber[0]].ass_name, AllAssignment[AssignmentNumber[0]].ass_no, AllAssignment[AssignmentNumber[0]].deadline);\r\n    }\r\n\r\n    \r\n}",
  "sourcePath": "C:/pet/contracts/initial.sol",
  "compiler": {
    "name": "solc",
    "version": "0.5.0+commit.1d4f565a.Emscripten.clang"
  },
  "schemaVersion": "3.0.2",
  "updatedAt": "2019-03-10T11:08:40.850Z",
  "devdoc": {
    "methods": {}
  },
  "userdoc": {
    "methods": {}
  }
}